:020000040000FA
:0600000091EF19F012005F
:0600080004EF08F01200F5
:060018000CEF08F01200DD
:0610000091EF19F012004F
:021006001200D6
:061008006CEF11F0120074
:06101800B7EF11F0120019
:02101E000100CF
:0C1020003E3300004001000044000000CE
:04102C00D9CFE6FF33
:10103000E1CFD9FFE652A0940F015F6B626A536B58
:10104000030EE66EE66AE66A540EE66E0F0EE66E74
:1010500067EC19F0106E050EE15E1050160E616E11
:101060000F019F0E5B6F7B0E606EDF6ADF50106EAC
:10107000116A100E105C000E115810E2DF50040DC2
:10108000F3CFE9FFF4CFEAFF000EE926020EEA22D1
:10109000EE6AEE6AEE6AEE6ADF2AE8D7648C0F0128
:1010A0005C6B6498649C62A607D0629601019F6B9A
:1010B000A46BA56BA66BF7D70101010EBA6FBB6FCE
:1010C000BC6BBD6BAC6BDF6A040EDF5C26E2EA6AC8
:1010D000DF34FE0BEA36E96E930EE926010EEA22B2
:1010E000EE6AED6AEA6ADF34FE0BEA36E96E8B0ED1
:1010F000E926010EEA22EE6AED6ADF50EA6AB00FD5
:10110000E96E010EEA22EF6ADF50EA6AB40FE96E77
:10111000010EEA22EF6ADF2AD7D70101080E936F8A
:10112000020E946F0F01160E536F0201400E026FF4
:10113000020E036F080E016F840E006F0101856BB4
:10114000846BE552E552E7CFD9FF1200D9CFE6FF15
:10115000E1CFD9FFE6520101840507E164BA05D069
:10116000626A60806088020E846F6250040B05E042
:101170006050040B02E06294C6D864A202D0A1942D
:101180008ED06250010B09E06050010B06E04EDF8B
:10119000A0840101040E846F62906250100B05E080
:1011A0006050100B02E09AD8629862AC12D060AC2A
:1011B0000FD0010EE66EE66A000EE66EE66A730E6A
:1011C000E66EE66A0EEC16F0106E060EE15E10504A
:1011D000629C6250200B04E06050200B01E064D858
:1011E0006250020B14E06050020B11E0010EE66E3B
:1011F000E66A000EE66EE66AE6687F0EE66E0EECC4
:1012000016F0106E060EE15E10500F015F6B040EBB
:101210000101E76E8419E8AE02D0E73402D0E7504E
:10122000845D02E2A1943BD060A638D0DF6A040E50
:10123000DF5C34E262A631D063CFADF10101AD5184
:10124000780BE842E842E842AE6F6296ADB508D04E
:10125000AE51EA6AB40FE96E010EEA22EF7007D0D0
:10126000AE51EA6AB00FE96E010EEA22EF70AE519C
:1012700002E160D810D0000EE66EE66AAD0EE66EB2
:10128000010EE66E720EE66EE66A0EEC16F0106E59
:10129000060EE15E1050DF2ACAD700D0A194E552B5
:1012A000E552E7CFD9FF12000F0153A115D087C136
:1012B000E9FF88C1EAFFEF5080080DE193C1E9FF23
:1012C00094C1EAFFEF50840806E187C1E9FF88C1B5
:1012D000EAFF8C0EEF6E5391629A1200608462985E
:1012E00064820101010EAC6F000EE66EE66AE66EE6
:1012F000E66A750EE66EE66A0EEC16F0106E060EE5
:10130000E15E105012000101AC6B000EE66EE66A61
:10131000E66EE66A740EE66EE66A0EEC16F0106E85
:10132000060EE15E10506492609462A402D0629452
:10133000FCD71200D9CFE6FFE1CFD9FFE652FD0E70
:101340000101AD1553E17E0EAD15E8407F0B040D94
:10135000F3CF87F1F4CF88F1000E8727020E8823A0
:1013600087C189F188C18AF1897587C1E9FF88C180
:10137000EAFFEF503C0BE842E8420D0835E1DF6A36
:10138000080EDF5C23E287C1E9FF88C1EAFF020E95
:10139000E926000EEA22EE50EFCFEAFFE96EEF50A9
:1013A000E66EDF50EA6A400FE96E020EEA22E5526D
:1013B000E750EF6E87C1E9FF88C1EAFF020EE92618
:1013C000000EEA22EE2AEF22DF2ADAD787C1E9FFF0
:1013D00088C1EAFF020EE926000EEA22400EEE6EF8
:1013E000020EED6E0DD801D03AD805D0FD0EAD1528
:1013F000040801E15AD8E552E552E7CFD9FF1200BF
:1014000001019B6BB96BBC6BBD6BAF6B9C6B93C1EC
:10141000E9FF94C1EAFFEF9E937593C1E9FF94C180
:10142000EAFFEF9E937589C1E9FF8AC1EAFFEF9E4B
:101430009F6BA06BA16BA46BA56BA66B93D8000EE2
:10144000E66EE66AE66EE66A030EE66EE66A0EECA5
:1014500016F0106E060EE15E1050A2EF0DF0020EB7
:1014600001019C5D03E165EC0EF01ED09C6BAF5159
:101470001AE189C1E9FF8AC1EAFFEE52080EEF6E58
:1014800089C1E9FF8AC1EAFF020EE926000EEA22BD
:10149000400EEE6E020EED6E89C1E9FF8AC1EAFFD1
:1014A0008C0EEF6E01D0AF6B1200D9CFE6FFE1CF0B
:1014B000D9FFE65293C1E9FF94C1EAFFEF50400B18
:1014C00001E0010EDF6E01019375080E845D0CE1F1
:1014D00042C25CFF0F015C5104E00101100E846FF9
:1014E00003D00101040E846F9C0528E193C1E9FF3C
:1014F00094C1EAFF020EE926000EEA22480EEE6EC3
:10150000020EED6E80DB020E01019B5D07E193C1CF
:10151000E9FF94C1EAFF840EEF6E0FD0DF5007E1C0
:1015200093C1E9FF94C1EAFFC80EEF6E06D093C1E4
:10153000E9FF94C1EAFF880EEF6E0FD0A4AF0CD084
:10154000A751A81107E005D0A8C1FAFF0101A751D2
:10155000F96EFADF0101A49F9C6BE552E552E7CFDB
:10156000D9FF120002014051600BE842E842E84214
:10157000E842E842000901E059D041510C0A55E027
:101580000B0A44E00C0A36E0010A27E00B0A23E0CC
:10159000020A21E0030A1DE0080A11E0010A0CE03A
:1015A0000F0A08E0030A01E040D001019F8F080EF6
:1015B000846F3CD006DA3AD005EC0FF037D0010149
:1015C000850E9D6F010E9E6F9F81010EA06F9F8FF4
:1015D0002DD057DA2BD02BD829D0445101019D6F43
:1015E0009E6B860E9D27010E9E239F81010EA06F8C
:1015F0009F8F1CD001019F8F02014451EA6A860F20
:10160000E96E010EEA2242C2EFFF10D0000EE66E34
:10161000E66AE66EE66A020EE66EE66A0EEC16F022
:10162000106E060EE15E105001D000D01200D9CF2E
:10163000E6FFE1CFD9FF030EE1260201420510E1EA
:1016400040511F0B00090CE101019F8F030E0201A5
:10165000415D04E10101010EAB6F02D00101AB6BF2
:101660000201425101E012D140511F0B020801E07A
:101670000DD144510F0B000901E108D144510F0B6A
:10168000030801E203D1200E0101845D01E0FED0D8
:101690009F8F020144BF1AD044510F0BE96EEA6AD2
:1016A000D890E936EA368B0EE926010EEA22EECF13
:1016B000DEFFEDCFDDFF44510F0BEA6AB40FE96E98
:1016C000010EEA22020EEFCFDBFF19D044510F0BBF
:1016D000E96EEA6AD890E936EA36930EE926010EF9
:1016E000EA22EECFDEFFEDCFDDFF44510F0BEA6AB9
:1016F000B00FE96E010EEA22020EEFCFDBFFD950E8
:10170000020FE96EDACFEAFFEF50010B03E1000EA2
:10171000DF9401D0DF8444BF10D044510F0BE96E39
:10172000EA6AD890E936EA368B0EE926010EEA22FB
:10173000DECFEEFFDDCFEDFF0FD044510F0BE96E92
:10174000EA6AD890E936EA36930EE926010EEA22D3
:10175000DECFEEFFDDCFEDFF030E415D23E1DECFF7
:10176000E9FFDDCFEAFFEF50800B13E044BF09D063
:1017700044510F0BEA6AB40FE96E010EEA22EF82C0
:1017800008D044510F0BEA6AB00FE96E010EEA224D
:10179000EF82840E106EDECFE9FFDDCFEAFF10503E
:1017A000EF1274D0DF74DECFE9FFDDCFEAFFEF5038
:1017B000800B1BE0DECFE9FFDDCFEAFFEF9EDECF3F
:1017C000E9FFDDCFEAFFEF8C020EE66EE66ADECFC0
:1017D000E6FFDDCFE6FF050EE66EE66A0EEC16F0DC
:1017E000106E060EE15E105005D0DECFE9FFDDCFB2
:1017F000EAFFEF8CDF74D950020FE96EDACFEAFF0F
:10180000EF50020B0EE1DECFE9FFDDCFEAFFEF5034
:10181000800B34E0DECFE9FFDDCFEAFFEF50040BB1
:101820002DE1020144BF09D044510F0BEA6AB40F05
:10183000E96E010EEA22EF9208D044510F0BEA6ADA
:10184000B00FE96E010EEA22EF923B0E106EDECF72
:10185000E9FFDDCFEAFF1050EF16020EE66EE66AF2
:10186000DECFE6FFDDCFE6FF050EE66EE66A0EECA4
:1018700016F0106E060EE15E105008D03B0E106E92
:10188000DECFE9FFDDCFEAFF1050EF16030EE15C7B
:1018900002E2E16AE552E16EE552E7CFD9FF1200BC
:1018A0000101BA514DE1010EBA6FBB5149E1010E80
:1018B000BB6F020E9C5D0DE193C1E9FF94C1EAFF8D
:1018C000EE52EF6A93C1E9FF94C1EAFFC80EEF6ED2
:1018D00037D09C0535E1AF6B87C1E9FF88C1EAFFCE
:1018E000EE52080EEF6E87C1E9FF88C1EAFF020ED3
:1018F000E926000EEA22400EEE6E020EED6E87C162
:10190000E9FF88C1EAFF840EEF6E010EAF6F89C157
:10191000E9FF8AC1EAFFEE52080EEF6E89C1E9FFC6
:101920008AC1EAFF020EE926000EEA22400EEE6EA0
:10193000020EED6E89C1E9FF8AC1EAFF800EEF6EEB
:1019400012000101BC6BBD6B020E9C5D1AE189C1E6
:10195000E9FF8AC1EAFFEE52080EEF6E89C1E9FF86
:101960008AC1EAFF020EE926000EEA22480EEE6E58
:10197000020EED6E89C1E9FF8AC1EAFFC80EEF6E63
:101980001FD0A0510201465D0101A151020147593A
:1019900004E246C2A0F147C2A1F135D993C1E9FFE3
:1019A00094C1EAFF020EE926000EEA22480EEE6E0E
:1019B000020EED6E93C1E9FF94C1EAFFC80EEF6E0F
:1019C0001200800E0201405D5BE10101C00E9F6FBD
:1019D00002014351030A34E0010A0EE0030A03E066
:1019E00001019F6B4DD001011E0E9D6F310E9E6F48
:1019F000120EA06FA16B44D04251F66EF76AD890D8
:101A0000F636F736DF0EF626310EF7220900F5CF4F
:101A10009DF10A00F5CF9EF1020E0101F76A9D25A6
:101A2000F66E9E51F7220800F5CFA0F1030EF76A7B
:101A30009D25F66E9E51F7220800F5CFA1F120D02A
:101A4000030E425D1AE24251F66EF76AD890F636FE
:101A5000F736E10EF626310EF7220900F5CF9DF19B
:101A60000A00F5CF9EF19DC1F6FF9EC1F7FF080069
:101A7000F5500101A06FA16B02D001019F6B00D056
:101A80001200D9CFE6FFE1CFD9FF020EE126020115
:101A9000486B496B40511F0B020A12E0030A0DE02C
:101AA000010A01E03BD001019F8F02014881010141
:101AB000AB0502E10201488331D001019F8F2ED096
:101AC00001019F8F020144BF10D044510F0BE96EFA
:101AD000EA6AD890E936EA368B0EE926010EEA2248
:101AE000EECFDEFFEDCFDDFF0FD044510F0BE96EDF
:101AF000EA6AD890E936EA36930EE926010EEA2220
:101B0000EECFDEFFEDCFDDFFDECFE9FFDDCFEAFF79
:101B1000EF50040B02E0010E486F00D001019FAFAF
:101B200007D0480E9D6F020E9E6F9F81020EA06F20
:101B3000020EE15C02E2E16AE552E16EE552E7CFB6
:101B4000D9FF1200649801019FBF2BD0A4AF09D028
:101B5000020E9C6FBD5101E1F4DE0101BB6BBA6B5B
:101B60001FD089C1E9FF8AC1EAFFEE52080EEF6E6D
:101B700089C1E9FF8AC1EAFF020EE926000EEA22C6
:101B8000400EEE6E020EED6E89C1E9FF8AC1EAFFDA
:101B90008C0EEF6E93C1E9FF94C1EAFF840EEF6EE5
:101BA00031D0020140AF0DD00101010E9C6FBC513C
:101BB00001E1C7DE0101BB6BBA6BB95101E170DE17
:101BC00021D00101020E9C6F89C1E9FF8AC1EAFFA1
:101BD000EE52080EEF6E89C1E9FF8AC1EAFF020EDC
:101BE000E926000EEA22400EEE6E020EED6E89C16D
:101BF000E9FF8AC1EAFF840EEF6EBB6BBA6BB95185
:101C000001E14EDE1200D9CFE6FFE1CFD9FFE65267
:101C1000080EDF6E0101A05D000EA1590BE2A0C10C
:101C2000DFFF9B5103E1010E9B6F04D09B0502E196
:101C3000020E9B6FDF50106E116A1050A05DA06FF6
:101C40001150A159A16F93C1E9FF94C1EAFFEE526F
:101C5000DFCFEFFF480EA96F020EAA6F9FB119D018
:101C6000DF5016E09DC1F6FF9EC1F7FF9D2B000ED1
:101C70009E230800F550E66EA9C1E9FFAAC1EAFF5C
:101C8000A92B000EAA23E552E750EF6EDF06E8D736
:101C900017D0DF5015E09DC1E9FF9EC1EAFF9D2BE3
:101CA000000E9E23EF50E66EA9C1E9FFAAC1EAFF2C
:101CB000A92B000EAA23E552E750EF6EDF06E9D705
:101CC000E552E552E7CFD9FF1200D9CFE6FFE1CFC9
:101CD000D9FF020EE12687C1E9FF88C1EAFFEE5273
:101CE000EFCFDFFFDFCF10F010500101A55D000E38
:101CF000A65902E2A5C1DFFFDF50106E116A105035
:101D0000A55DA56F1150A659A66F010EDB6ADF50C5
:101D1000F36E010EDBCFF4FFF350F45C16E2010E1C
:101D2000DB50EA6A480FE96E020EEA22EF50E66ED7
:101D3000A2C1E9FFA3C1EAFFA22B000EA323E55233
:101D4000E750EF6E010EDB2AE2D7000ED880A555D2
:101D5000000EA65528E289C1E9FF8AC1EAFFEE52CA
:101D6000080EEF6E89C1E9FF8AC1EAFF020EE9267B
:101D7000000EEA22480EEE6E020EED6E87C1E9FFFC
:101D800088C1EAFFEF50400B07E189C1E9FF8AC132
:101D9000EAFFC80EEF6E06D089C1E9FF8AC1EAFFEB
:101DA000880EEF6E28D089C1E9FF8AC1EAFFEE52A2
:101DB000080EEF6E89C1E9FF8AC1EAFF020EE9262B
:101DC000000EEA22400EEE6E020EED6E89C1E9FFB2
:101DD0008AC1EAFF840EEF6EA751A81107E005D073
:101DE000A8C1FAFF0101A751F96EFADF0101A49F12
:101DF000B95101E155DD020EE15C02E2E16AE55212
:101E0000E16EE552E7CFD9FF1200D9CFE6FFE1CF6F
:101E1000D9FFE65201019F8F030EE66EE66AE66A7D
:101E2000540EE66E0F0EE66E67EC19F0106E050E9E
:101E3000E15E1050DF6ADF50106E116A100E105C08
:101E4000000E115810E2DF50040DF3CFE9FFF4CF7C
:101E5000EAFF000EE926020EEA22EE6AEE6AEE6A58
:101E6000EE6ADF2AE8D7648C010EE66EE66AE66A5F
:101E7000860EE66E010EE66E67EC19F0106E050E2A
:101E8000E15E1050649C0101080E936F020E946F86
:101E9000000E876F020E886F87C189F188C18AF1B1
:101EA00042C285F1855103E1100E846F13D0010EFB
:101EB000E66EE66A850EE66E010EE66E010EE66ED1
:101EC000E66A0EEC16F0106E060EE15E105001018F
:101ED000200E846FE552E552E7CFD9FF1200D9CF2B
:101EE000E6FFE1CFD9FF020EE126000EDE6E020E04
:101EF000DD6EFD0EDB50E824126EFE0EDB50040D8D
:101F0000F3501224040DF3CF10F0F4CF11F0D9CF19
:101F1000E9FFDACFEAFF1050EE261150ED22DECFB6
:101F2000E9FFDDCFEAFFEF9EFD0EDB500FE1FE0E75
:101F3000EA6ADB34FE0BEA36E96E8B0EE926010E07
:101F4000EA22DECFEEFFDDCFEDFF0ED0FE0EEA6A15
:101F5000DB34FE0BEA36E96E930EE926010EEA2227
:101F6000DECFEEFFDDCFEDFFDECFE9FFDDCFEAFF15
:101F7000EF9CDECFE9FFDDCFEAFF040EE926000E7D
:101F8000EA22EF8C020EE15C02E2E16AE552E16EC8
:101F9000E552E7CFD9FF1200D9CFE6FFE1CFD9FF55
:101FA000020EE126FD0EDBA407D0E66AFE0EDBCFB3
:101FB000E6FF95DFE552E552FD0EDBA208D0010EEB
:101FC000E66EFE0EDBCFE6FF8ADFE552E552FE0E3F
:101FD000DB50116A530F106E0F0E112210C0DEFF7E
:101FE00011C0DDFFDECFE9FFDDCFEAFFFD0EDBCF65
:101FF000EFFF020EE15C02E2E16AE552E16EE552BA
:10200000E7CFD9FF1200D9CFE6FFE1CFD9FF020E0B
:10201000E126FE0EDB5020E189C1E9FF8AC1EAFF1B
:10202000EE52080EEF6E89C1E9FF8AC1EAFF020E87
:10203000E926000EEA22400EEE6E020EED6E89C118
:10204000E9FF8AC1EAFF8C0EEF6E93C1E9FF94C1EC
:10205000EAFF840EEF6E3DD0FD0EDB50E824126ED9
:10206000FE0EDB50040DF3501224040DF3CF10F0DC
:10207000F4CF11F0000E1026020E112210C0DEFF68
:1020800011C0DDFF840E106EDECFE9FFDDCFEAFF69
:102090001050EF12FD0EDB50E824126EFE0EDB50E6
:1020A000040DF3501224010F040DF3CF10F0F4CF00
:1020B00011F0000E1026020E112210C0DEFF11C01A
:1020C000DDFF840E106EDECFE9FFDDCFEAFF10509A
:1020D000EF12020EE15C02E2E16AE552E16EE552C6
:1020E000E7CFD9FF1200D9CFE6FFE1CFD9FF020E2B
:1020F000E126FD0EDB500FE0FE0EEA6ADB34FE0B3C
:10210000EA36E96E930EE926010EEA22EECFDEFFF3
:10211000EDCFDDFF0ED0FE0EEA6ADB34FE0BEA36B1
:10212000E96E8B0EE926010EEA22EECFDEFFEDCF3F
:10213000DDFFD9CFE9FFDACFEAFFEE50ED1003E182
:10214000F36AF46A49D0DECFE9FFDDCFEAFF020E81
:10215000E926000EEA22FB0EDBCFEEFFFC0EDBCF02
:10216000EDFFDECFE9FFDDCFEAFFEE52FA0EDBCF67
:10217000EFFF400E106EDECFE9FFDDCFEAFF10501B
:10218000EF16880E106EDECFE9FFDDCFEAFF1050AC
:10219000EF12FD0EDB500CE0FE0EEA6ADB34FE0BA4
:1021A000EA36E96E930EE926010EEA22EF740BD0AF
:1021B000FE0EEA6ADB34FE0BEA36E96E8B0EE92688
:1021C000010EEA22EF74DECF10F0DDCF11F010C067
:1021D000F3FF11C0F4FF00D0020EE15C02E2E16AFD
:1021E000E552E16EE552E7CFD9FF1200D9CFE6FF05
:1021F000E1CFD9FF64A84ED0FE0EEA6ADB34FE0BB5
:10220000EA36E96E930EE926010EEA22EE50EFCF90
:10221000EAFFE96E400EEE16EE6AEE6AEE6AFE0E18
:10222000EA6ADB34FE0BEA36E96E930EE926010E0C
:10223000EA22EE50EFCFEAFFE96EEE7CFE0EEA6A8C
:10224000DB34FE0BEA36E96E930EE926010EEA2234
:10225000EF74400E106EFE0EEA6ADB34FE0BEA36B7
:10226000E96E930EE926010EEA22EE50EFCFEAFF67
:10227000E96E1050EF16FE0EEA6ADB34FE0BEA360A
:10228000E96E930EE926010EEA22EE50EFCFEAFF47
:10229000E96EEF7CE552E7CFD9FF1200646A606A0D
:1022A0000101846B00D012000101845114E1646AC1
:1022B000606A160E616E0F019F0E5B6F7B0E606E83
:1022C000D08EA284A084F28E64B602D06486FCD73D
:0822D0000101010E846F1200F0
:0822D800DACFE4FFE2CFDAFFE8
:1022E000E9CFE4FFEACFE4FFF6CFE4FFF7CFE4FF66
:1022F000F5CFE4FFF3CFE4FFF4CFE4FFFACFE4FF40
:1023000000EE00F0100EE80403E3EECFE4FFFBD78D
:1023100000EE10F0080EE80403E3EECFE4FFFBD775
:10232000E652A6EC08F0E55200EE17F0080EE804BD
:1023300003E3E5CFEDFFFBD700EE0FF0100EE8044E
:1023400003E3E5CFEDFFFBD7E5CFFAFFE5CFF4FFE1
:10235000E5CFF3FFE5CFF5FFE5CFF7FFE5CFF6FFDC
:10236000E5CFEAFFE5CFE9FFE5CFDAFF1100D8CFEF
:10237000E4FFE0CFE4FFE46EDACFE4FFE2CFDAFF80
:10238000E652E552E5CFDAFFE550E5CFE0FFE5CFD5
:10239000D8FF100005D854EC11F0E0D8FED7120099
:1023A0000F0EC11202D816EF08F0D9CFE6FFE1CF29
:1023B000D9FFE6521FD8DF6ADF50106E116A400E57
:1023C000105C000E115809E2DF50EA6A600FE96EF6
:1023D000000EEA22EF6ADF2AEFD70001E06BE16B23
:1023E000ED6BEE6BF00E8B169416E552E552E7CFCF
:1023F000D9FF1200D9CFE6FFE1CFD9FFE6527F9691
:10240000938A939E240EAC6E900EAB6EC30EAF6E8D
:10241000090EB06E080EB86EAE50DF6EE552E55292
:10242000E7CFD9FF1200D9CFE6FFE1CFD9FFFE0EEB
:10243000DB50AD6EE552E7CFD9FF1200D9CFE6FFF2
:10244000E1CFD9FF040EE126D880000E02015055DD
:10245000C20E5155010E5255000E535501E23DD0AA
:1024600050C2D8F251C2D9F252C2DAF253C2DBF2F0
:10247000146A1B0E156EB70E166E176A14C004F0A0
:1024800015C005F016C006F017C007F0D8C209F055
:10249000D9C20AF0DAC20BF0DBC20CF043EC19F03F
:1024A00004C010F005C011F006C012F007C013F010
:1024B0001006000E115A125A135A10C0DFFF010EF7
:1024C00011C0DBFF020E12C0DBFF030E13C0DBFFE7
:1024D000DF50AF6E010EDB50B06E040EE15C02E225
:1024E000E16AE552E16EE552E7CFD9FF1200D9CF9C
:1024F000E6FFE1CFD9FFE652ABA205D0AB98AE50D4
:10250000DF6EAB8802D0AE50DF6EDF5000D0E552F8
:10251000E552E7CFD9FF12000101816B050EE76E8E
:102520008119E8AE02D0E73402D0E750815D15E2B0
:10253000020EAC14020801E0FBD781C1E9FFEA6A90
:10254000E9BEEA68E30EE926000EEA22EF50E66EE5
:102550006ADFE5520101812BE1D7120002DB200E78
:102560000101E76E8419E8AE02D0E73402D0E750EB
:10257000845D03E36450020B01E0F2D2010140519B
:1025800015E1400EE66EA00EE66E000EE66EE0EC83
:1025900016F0E552E552E5520001E16FE151000805
:1025A00005E20101010E406F0001E26B01014051A3
:1025B00001E1AAD2AC50020B01E1A6D2816B00016D
:1025C000E1510101815D1AE281C1E9FFEA6AE9BED8
:1025D000EA68A00EE926000EEA22EF50E66E41C13D
:1025E000E9FFEA6AE9BEEA68E30EE926000EEA229C
:1025F000E552E750EF6E412B812BE1D7040EE76ED9
:102600004119E8AE02D0413503D0E750D88041559A
:1026100001E339D2E70E0001E75D10E10101BF518E
:1026200001E0FCD7050EE66E510EE66E010EE66E79
:1026300041EC17F0E552E552E55225D2F70EE75D81
:1026400010E10101BF5101E0FCD7050EE66E560E08
:10265000E66E010EE66E41EC17F0E552E552E552EA
:1026600012D2030EE75D10E10101BF5101E0FCD77A
:10267000050EE66E420EE66E010EE66E41EC17F0B8
:10268000E552E552E552FFD1E75131E145DF010165
:10269000816B040EE76E8119E8AE02D0E73402D0F8
:1026A000E750815D19E281C1E9FFEA6AE9BEEA68A3
:1026B000420EE926010EEA22EF50E66E81C1E9FFE3
:1026C000EA6AE9BEEA68E30EE926000EEA22E5526C
:1026D000E750EF6E812BDDD70001010EE76F1CDFA5
:1026E0000001080EE36F070EE76F16DFCCD1800EF6
:1026F000E75D02E111DFC7D1E70540E10101816B30
:10270000040EE76E8119E8AE02D0E73402D0E7503C
:10271000815D19E281C1E9FFEA6AE9BEEA68E30E78
:10272000E926000EEA22EF50E66E81C1E9FFEA6A6F
:10273000E9BEEA68420EE926010EEA22E552E750B8
:10274000EF6E812BDDD7230E0001E76EE319E8AEB3
:1027500002D0E33503D0E750D880E3550DE2310EC7
:10276000E76EE319E8AE02D0E73402D0E750E35D4C
:1027700003E2A00EE325E36FCFDE85D1110EE75D06
:1027800042E10101816B040EE76E8119E8AE02D0CF
:10279000E73402D0E750815D19E281C1E9FFEA6ABE
:1027A000E9BEEA68E30EE926000EEA22EF50E66E83
:1027B00081C1E9FFEA6AE9BEEA68470EE926010E2F
:1027C000EA22E552E750EF6E812BDDD700011E0EA5
:1027D000E76F230EE76EE319E8AE02D0E33503D0CE
:1027E000E750D880E3550DE2310EE76EE319E8AE0D
:1027F00002D0E73402D0E750E35D03E2A00EE32508
:10280000E36F8ADE40D1210EE75D42E10101816B79
:10281000040EE76E8119E8AE02D0E73402D0E7502B
:10282000815D19E281C1E9FFEA6AE9BEEA68E30E67
:10283000E926000EEA22EF50E66E81C1E9FFEA6A5E
:10284000E9BEEA684C0EE926010EEA22E552E7509D
:10285000EF6E812BDDD700012E0EE76F230EE76EA2
:10286000E319E8AE02D0E33503D0E750D880E35552
:102870000DE2310EE76EE319E8AE02D0E73402D084
:10288000E750E35D03E2A00EE325E36F45DEFBD0F6
:10289000130EE75D10E10101BF5101E0FCD7050E09
:1028A000E66E470EE66E010EE66E41EC17F0E5525D
:1028B000E552E552E8D0230EE75D10E10101BF517A
:1028C00001E0FCD7050EE66E4C0EE66E010EE66EDC
:1028D00041EC17F0E552E552E552D5D0090EE75D1F
:1028E00004E1E3C0E7F018DECED00B0EE75D21E196
:1028F000FA0EE76F1F0EE76EE319E8AE02D0E3357C
:1029000003D0E750D880E35505E21A0EE35D0101DC
:10291000816F02D0E3C081F181C1E9FFEA6AE9BEBB
:10292000EA685B0EE926010EEA22EFCFE3F0F4DD60
:10293000AAD00A0EE75D0DE1E3C0E7F02A0EE35DE1
:1029400002E10A0EE76F0A0EE35D01E1E76BE4DDE9
:102950009AD0070EE75D04E1DFDDE3C046F193D0D6
:10296000170EE75D04E1D8DDE3C04BF18CD0270EF4
:10297000E75D04E1D1DDE3C050F185D0080EE75DED
:1029800025E1CADD0101816B040EE76E8119E8AE15
:1029900002D0E73402D0E750815D17E281C1E9FF40
:1029A000EA6AE9BEEA68510EE926010EEA22400E03
:1029B000EF6E81C1E9FFEA6AE9BEEA68560EE926D0
:1029C000010EEA22EF6A812BDFD75DD0880EE75D2A
:1029D00026E1A2DD0101816B040EE76E8119E8AEEC
:1029E00002D0E73402D0E750815D18E281C1E9FFEF
:1029F000EA6AE9BEEA68510EE926010EEA22470EAC
:102A0000EF6E81C1E9FFEA6AE9BEEA68560EE9267F
:102A1000010EEA22800EEF6E812BDED734D04E0EEF
:102A2000E75D04E10E0EE76F77DD2DD08E0EE75DDA
:102A30002AE172DD0101816B040EE76E8119E8AEB7
:102A400002D0E73402D0E750815D19E281C1E9FF8D
:102A5000EA6AE9BEEA68420EE926010EEA22EF5070
:102A6000E66E81C1E9FFEA6AE9BEEA68E30EE9269B
:102A7000000EEA22E552E750EF6E812BDDD7000110
:102A8000010EE76F49DD050E0101E76E4119E8AE61
:102A900002D0413503D0E750D880415526E2816B02
:102AA000050E415DE76E8119E8AE02D0E73402D031
:102AB000E750815D1AE2050E8125E96EEA6AE9BEFA
:102AC000EA68E30EE926000EEA22EF50E66E81C1C5
:102AD000E9FFEA6AE9BEEA68E30EE926000EEA22A7
:102AE000E552E750EF6E812BDBD7040EE76E4119FC
:102AF000E8AE02D0413503D0E750D880415503E21B
:102B0000050E415D416F406B9EAA14D0F0DCE66E6D
:102B10000001E051EA6A600FE96E000EEA22E55218
:102B2000E750EF6EE02BE051EA6A600FE96E000EAD
:102B3000EA22EF6A0101BF5111E10001E0510008F2
:102B40000DE2E0C0E6FF600EE66E000EE66E41ECC0
:102B500017F0E552E552E5520001E06BE5EC17F0A5
:102B6000120001018251831104E1100E826F270EC1
:102B7000836F8207000E835B64A20AD082518311A7
:102B800006E18B708BA002D08B8201D08B922ED06D
:102B90000101845103E18B908B9228D0840503E1DD
:102BA0008B808B8223D0020E845D03E18B808B921D
:102BB0001DD0040E845D03E18B908B8217D0100E24
:102BC000845D07E101018251831102E18B708B92D8
:102BD0000DD0200E845D0AE101018251831106E1CE
:102BE0008B708BA002D08B9201D08B8212001200CE
:102BF00012001200120059EF16F01200ACEF16F09E
:102C000064840001080EEF6F070EF06FEF07000EEF
:102C1000F05BEF51F011FAE164941200D9CFE6FFB6
:102C2000E1CFD9FFFD0EDBCF06F0FE0EDBCF07F0C4
:102C3000720E061801E1075033E0E868061802E159
:102C40007F0E07182BE0740E061801E1075024E0F0
:102C5000750E061801E107501DE0730E061801E11C
:102C6000075016E0030E061801E107500FE0020EB0
:102C7000061801E1075008E0010E061801E10750AF
:102C800001E010D0BBDF0FD0B8DF0DD0B4DF0BD028
:102C9000B0DF09D0ACDF07D0ABDF05D0ABDF03D0AE
:102CA000000001D000D0010E00D0E552E7CFD9FFDF
:022CB000120010
:0E2CB200020140511F0B010801E04CD04051BF
:102CC000600BE842E842E842E842E842010801E0DD
:102CD00042D0445103E0440501E03DD04151220A75
:102CE00035E0030A28E0010A17E0210A0EE0010A94
:102CF00001E031D00101CF0E9D6F010E9E6F080ED5
:102D0000A06FA16B9F819F8F26D00101CF0E9D6F79
:102D1000010E9E6F9F8F1FD046C2A5F147C2A6F13C
:102D20000101500EA26F020EA36F3C0EA76F240E7E
:102D3000A86FA48F10D00101D80E9D6F020E9E6F58
:102D4000070EA06FA16BC10E9F6F05D042C2CAF1E2
:102D500001019F8F00D012000201D86B4B0ED96F7A
:102D6000DA6BDB6BDC6BDD6B080EDE6F0101BE6BBB
:102D70001A0EE66E020EE66ECCEC0FF0E552E5524E
:102D80001E0EE66E030EE66ECCEC0FF0E552E55239
:102D9000400EE66E580EE66E020EE66EE66A030E12
:102DA000E66E73EC10F0106E050EE15E1050F3CF7E
:102DB000C6F1F4CFC7F10101C86BC96BBF6B12003C
:102DC000D9CFE6FFE1CFD9FF0101BE6BC651C711D4
:102DD00002E1000E08D0C6C1E9FFC7C1EAFFEF500B
:102DE000800B01E0010E000945E1FC0EDBCF10F085
:102DF000C6C1E9FFC7C1EAFFEE52EF50D8801054B8
:102E000008E2C6C1E9FFC7C1EAFFEE52FC0EEFCFF0
:102E1000DBFFBE6BFC0EDB50BE5D19E2BE51EA6A01
:102E2000580FE96E020EEA22EF50E66EBE51E76ED1
:102E3000FD0EDBCFE9FFFE0EDBCFEAFFE750E92610
:102E4000000EEA22E552E750EF6EBE2BE3D7400EAC
:102E5000E66E580EE66E020EE66EE66A030EE66E4B
:102E600073EC10F0106E050EE15E1050F3CFC6F15A
:102E7000F4CFC7F10101BE5100D0E552E7CFD9FF31
:102E80001200D9CFE6FFE1CFD9FFA0940101BF51D5
:102E90000CE1FD0EDBCFC0F1FE0EDBCFC1F1FC0E6D
:102EA000DBCFC4F1010EC56FBF6FA084E552E7CF41
:102EB000D9FF1200D9CFE6FFE1CFD9FF030EE126FB
:102EC000A0940101BF5102E0A0842FD0DF6AFD0E63
:102ED000DBCF06F0FE0EDBCF07F0DE5206C0DEFFD2
:102EE00007C0DDFFDD52DF2ADF50106E116AFF0ED2
:102EF000101801E1115001E10BD0010EDBCFE9FF09
:102F0000DB2A020EDBCFEAFF01E3DB2AEF50EBE125
:102F1000FD0EDBCFC0F1FE0EDBCFC1F1DFCFC4F180
:102F20000101010EC56FBF6FA084030EE15C02E2D8
:102F3000E16AE552E16EE552E7CFD9FF1200D9CF41
:102F4000E6FFE1CFD9FF030EE126A0940101BF51B6
:102F500002E0A08430D0DF6AFD0EDBCF06F0FE0E6B
:102F6000DBCF07F0DE5206C0DEFF07C0DDFFDD521B
:102F7000DF2ADF50106E116AFF0E101801E11150A8
:102F800001E10CD0010EDBCFF6FFDB2A020EDBCF16
:102F9000F7FF01E3DB2A0800F550EAE1FD0EDBCF85
:102FA000C0F1FE0EDBCFC1F1DFCFC4F10101C56B73
:102FB000010EBF6FA084030EE15C02E2E16AE552FC
:102FC000E16EE552E7CFD9FF1200D9CFE6FFE1CF9E
:102FD000D9FF020EE126A0940101C851C91102E1F6
:102FE000000E08D0C8C1E9FFC9C1EAFFEF50800B4D
:102FF00001E0010E000902E0A08487D0030EBF5D4E
:1030000001E1BF6BBF5102E1A0847FD0020EBF5D22
:1030100016E1E66A000EE66EE66A010EE66E030E43
:10302000E66E73EC10F0106E050EE15E1050F3CFFB
:10303000C8F1F4CFC9F10101030EBF6F65D0BF0520
:1030400063E1400E106E116AC451105C000E1158FD
:1030500003E2400EDF6E02D0C4C1DFFFDF50C45D6B
:10306000C46F980EC26F020EC36F010EDFCFDBFF7D
:10307000C55117E1010EDB5013E0C0C1F6FFC1C11D
:10308000F7FF0800F550C2C1E9FFC3C1EAFFEF6EC8
:10309000C22B000EC323C02BC123010EDB06EAD7CF
:1030A00015D0010EDB5012E0C0C1E9FFC1C1EAFF3B
:1030B000EF50C2C1E9FFC3C1EAFFEF6EC22B000EA1
:1030C000C323C02BC123010EDB06EBD7C45108E19B
:1030D000400EDF5C03E1020EBF6F02D0030EBF6F34
:1030E000DFCFE6FF980EE66E020EE66E010EE66E8C
:1030F000030EE66E73EC10F0106E050EE15E1050DC
:10310000F3CFC8F1F4CFC9F1A084020EE15C02E272
:0E311000E16AE552E16EE552E7CFD9FF120009
:02311E0012019C
:10312000000202000008D8040A00010001020001A8
:1031300009024300020100C032090400000102023A
:1031400001000524001001042402020524060001E8
:10315000052401000107058203080002090401009B
:10316000020A000000070503024000000705830271
:103170004000000403090434034D00690063007239
:10318000006F006300680069007000200054006553
:1031900000630068006E006F006C006F00670079CC
:1031A00000200049006E0063002E003403430044F9
:1031B0000043002000520053002D00320033003243
:1031C00000200045006D0075006C0061007400690E
:1031D000006F006E002000440065006D006F00303D
:0731E0003173317731AB318F
:0831E8001E0EF66E100EF76ECC
:1031F000000EF86E00010900F550F66F0900F55059
:10320000F76F03E1F66701D03DD00900F550F16F8B
:103210000900F550F26F0900F550F36F090009003D
:10322000F550E96E0900F550EA6E09000900090041
:10323000F550F46F0900F550F56F09000900F6CF5D
:10324000F8F0F7CFF9F0F8CFFAF0F1C0F6FFF2C0DE
:10325000F7FFF3C0F8FF0001F45302E1F55307E074
:103260000900F550EE6EF407F8E2F507F9D7F8C05B
:10327000F6FFF9C0F7FFFAC0F8FF0001F607000EED
:06328000F75BBFD712004E
:0A328600036A026A016A006A200E62
:10329000E76ED89004360536063607360036013616
:1032A000023603360950005C0A5001580B50025890
:1032B0000C50035809E30950005E0A50015A0B50A4
:0E32C000025A0C50035A042AE72EE4D71200DB
:0232CE00FE0EF2
:1032D000E3CFE9FFFF0EE3CFEAFFE9CFF3FFEACF49
:1032E000F4FFFB0EE35003E1FC0EE35009E0FB0E9C
:1032F000E30602E2FC0EE306FD0EE350EE6EF1D7AC
:023300001200B9
:0E330200000EF36E00EE00F0030E01D8120074
:10331000EA6002D0EE6AFCD7F350E9601200EE6A70
:02332000FCD7D8
:0E33220011EE00F021EE00F0F86A0F9CF4ECC2
:0E33300018F003EC08F0CAEC11F0FBD7120005
:02333E0000008D
:1033400014500000081450000000440000000080E9
:10335000808080E780808080F71E20222426282A13
:103360002C2E3032343638161A1F21232527292BCC
:103370002D2F3133353739181C131517191B1D0024
:0233800000004B
:020000040030CA
:0100000000FF
:0100010032CC
:0100020001FC
:010003001EDE
:0100050000FA
:0100060001F8
:0100080003F4
:01000900C036
:01000A0003F2
:01000B00E014
:01000C0003F0
:01000D0040B2
:00000001FF
